:100000000C942A000C9447000C9447000C94470071
:100010000C9447000C9447000C9447000C94470044
:100020000C9447000C9447000C9447000C94470034
:100030000C9447000C9447000C9447000C94470024
:100040000C9447000C9447000C9447000C94470014
:100050000C94470011241FBECFE5D4E0DEBFCDBF16
:1000600010E0A0E6B0E0E2E2FCE002C005900D92F4
:10007000A637B107D9F711E0A6E7B0E001C01D929D
:10008000A734B107E1F70E94BF020C940F060C944D
:100090000000CF93DF93CDB7DEB780E490E0FC01A2
:1000A000108289E290E029E1FC0120838AE290E05D
:1000B00028E1FC01208380E490E026E8FC01208315
:1000C000DF91CF910895CF93DF931F92CDB7DEB725
:1000D000898300008BE290E0FC018081882F90E012
:1000E000807299270097B1F38CE290E02981FC019E
:1000F00020830F90DF91CF910895CF93DF93CDB7F9
:10010000DEB72E970FB6F894DEBF0FBECDBF80913D
:100110004301882F90E081309105D1F08230910524
:100120001CF4009751F0ACC08230910509F490C0E6
:100130008330910509F495C0A3C00E94490188232A
:1001400031F00E945A0181E08093430199C098C028
:100150000E94A401882309F478C080E090E0A8E41C
:10016000B3E489839A83AB83BC8320E030E04AE721
:1001700054E469817A818B819C810E948405DC0131
:10018000CB018D839E83AF83B88720E030E040E8C9
:100190005FE36D817E818F8198850E9403058823AE
:1001A0002CF481E090E09A8789873FC020E03FEF00
:1001B0004FE757E46D817E818F8198850E9480058D
:1001C00018164CF520E030E040E251E469817A8174
:1001D0008B819C810E948405DC01CB01BC01CD0197
:1001E0000E940705DC01CB019A8789870FC084E64E
:1001F00090E09C878B878B859C850197F1F79C8786
:100200008B8789859A8501979A87898789859A85B9
:10021000009769F714C06D817E818F8198850E9457
:100220000705DC01CB019A87898789859A859E8796
:100230008D878D859E850197F1F79E878D870E941A
:10024000D90182E0809343011BC01092430118C082
:100250000E94A401882321F483E08093430110C00D
:100260000FC00E94A401882321F082E08093430103
:1002700006C00E9439020E94CC0110924301000086
:100280002E960FB6F894DEBF0FBECDBFDF91CF9193
:100290000895CF93DF93CDB7DEB785E390E02CE7E9
:1002A000FC01208389E390E0FC0180818F70DF9165
:1002B000CF910895CF93DF931F92CDB7DEB7198208
:1002C0003CC085E390E02981222F30E0A9014E5FF8
:1002D0005F4F21E030E0042E02C0220F331F0A944A
:1002E000E2F7FC01208389E390E0FC0180818F70BC
:1002F00080934001809140018823E1F0898184301E
:10030000A8F48981882F90E09C012C5F3F4F81E009
:1003100090E0022E02C0880F991F0A94E2F7982FEE
:1003200080914001892B809340010AC081E0809335
:100330003E0106C089818F5F89838981853008F2FB
:100340000F90DF91CF910895CF93DF93CDB7DEB7B4
:1003500080913E01882331F085E390E020E4FC01A8
:1003600020830FC085E390E020914001222F30E0F0
:10037000207F332735952795359527952C77FC01D8
:10038000208389E390E0FC019081809140018923E2
:100390008F70DF91CF910895CF93DF93CDB7DEB704
:1003A0001092460110923E0110924201DF91CF91CE
:1003B0000895CF93DF931F92CDB7DEB780913E01B2
:1003C000813051F5198223C08981882F90E0880FF0
:1003D000991F80599F4FFC0190818091400198178F
:1003E00099F48981882F90E0880F991F8F589F4F2B
:1003F000FC0180818093420181E08093460181E08D
:100400008093450181E031C089818F5F8983898133
:100410008430D0F280E029C0198223C08981882FDE
:1004200090E0880F991F805A9F4FFC019081809126
:100430004001981799F48981882F90E0880F991FBF
:100440008F599F4FFC0180818093420181E080930E
:10045000460181E08093450181E007C089818F5F7B
:10046000898389818830D0F280E00F90DF91CF912D
:100470000895CF93DF93CDB7DEB7809141018F5FB1
:100480008093410180914201809344018091440115
:100490000E946300DF91CF910895CF93DF93CDB792
:1004A000DEB78BE390E0FC01108288E390E0FC0172
:1004B000108285E390E02CE7FC01208382E390E04A
:1004C000FC01108280E0809344018093410180937D
:1004D0004201809340018093430110924501809135
:1004E0004501809346018091460180933E01109220
:1004F0003F01DF91CF910895CF93DF93CDB7DEB762
:1005000080914401882F90E0807F99270097D1F057
:1005100088E390E028E330E0F9012081622F209108
:100520004401222F30E0A9014F70552721E030E02F
:10053000042E02C0220F331F0A94E2F7262BFC017F
:1005400020831AC088E390E028E330E0F90120819D
:10055000622F20914401222F30E0A9014F705527CE
:1005600021E030E0042E02C0220F331F0A94E2F78C
:1005700020952623FC012083DF91CF910895CF930E
:10058000DF93CDB7DEB7AA970FB6F894DEBF0FBEE4
:10059000CDBF8AE390E0FC0110828BE390E0FC0188
:1005A000108287E390E02FEFFC01208388E390E046
:1005B000FC01108284E390E02FEFFC01208385E3AF
:1005C00090E02CE7FC01208381E390E02CEFFC011C
:1005D000208382E390E0FC01108280E0809344015C
:1005E00080934101809342018093400180934301B5
:1005F000109245018091450180934601809146010A
:1006000080933E010E9449000E944D0282E390E0E7
:1006100020E2FC0120830E947D0080914201882F0E
:1006200090E08B30910549F08C30910509F478C049
:100630008A30910509F43FC179C080E090E0AAEFCB
:10064000B3E489839A83AB83BC8320E030E04AE73C
:1006500054E469817A818B819C810E948405DC014C
:10066000CB018D839E83AF83B88720E030E040E8E4
:100670005FE36D817E818F8198850E9403058823C9
:100680002CF481E090E09A8789873FC020E03FEF1B
:100690004FE757E46D817E818F8198850E948005A8
:1006A00018164CF520E030E040E251E469817A818F
:1006B0008B819C810E948405DC01CB01BC01CD01B2
:1006C0000E940705DC01CB019A8789870FC084E669
:1006D00090E09C878B878B859C850197F1F79C87A1
:1006E0008B8789859A8501979A87898789859A85D5
:1006F000009769F71EC06D817E818F8198850E9469
:100700000705DC01CB019A87898789859A859E87B1
:100710008D878D859E850197F1F79E878D8709C00E
:1007200082E390E020E2FC01208300000E947C0232
:1007300072CF0E944D0282E390E020E4FC0120830E
:100740000E947D0080914101882F90E0209144011A
:100750008A589F4FFC01208380914201882F90E0AE
:100760008B30910599F08C30910509F48CC08A305A
:10077000910509F09DC080914101882F90E001967C
:100780008A589F4F2AEAFC01208396C0809141013C
:10079000882F90E001968A589F4F2AEAFC01208317
:1007A00080E090E0AAEFB3E48F87988BA98BBA8B97
:1007B00020E030E04AE754E46F85788989899A8996
:1007C0000E948405DC01CB018B8B9C8BAD8BBE8B97
:1007D00020E030E040E85FE36B897C898D899E8969
:1007E0000E94030588232CF481E090E0988F8F8B82
:1007F0003FC020E03FEF4FE757E46B897C898D894C
:100800009E890E94800518164CF520E030E040E2F9
:1008100051E46F85788989899A890E948405DC0171
:10082000CB01BC01CD010E940705DC01CB01988FF3
:100830008F8B0FC084E690E09A8F898F898D9A8D77
:100840000197F1F79A8F898F8F89988D0197988FEB
:100850008F8B8F89988D009769F7D6CE6B897C89AD
:100860008D899E890E940705DC01CB01988F8F8BB3
:100870008F89988D9C8F8B8F8B8D9C8D0197F1F735
:100880009C8F8B8FC1CE80914101882F90E0209169
:100890004101222F30E0215031092A583F4FF90100
:1008A0002081209344018A589F4FFC01208300003F
:1008B0000E947C0245CF00000E944D0282E390E03E
:1008C00020E8FC0120830E947D00809142018C3051
:1008D00009F49ACE80913F01882F90E08A589F4F6B
:1008E000FC0180818A3A19F481E080933F01809174
:1008F0003F01882F90E08A589F4FFC0180818093B0
:100900004401809144010E94630080913F010E9454
:1009100063000E947C0280E090E0AAEFB3E48D8F38
:100920009E8FAF8FB8A320E030E04AE754E46D8D8E
:100930007E8D8F8D98A10E948405DC01CB0189A357
:100940009AA3ABA3BCA320E030E040E85FE369A139
:100950007AA18BA19CA10E94030588232CF481E03D
:1009600090E09EA38DA33FC020E03FEF4FE757E408
:1009700069A17AA18BA19CA10E94800518164CF553
:1009800020E030E040E251E46D8D7E8D8F8D98A1A6
:100990000E948405DC01CB01BC01CD010E9407054A
:1009A000DC01CB019EA38DA30FC084E690E098A745
:1009B0008FA38FA198A50197F1F798A78FA38DA179
:1009C0009EA101979EA38DA38DA19EA1009769F77B
:1009D00014C069A17AA18BA19CA10E940705DC012A
:1009E000CB019EA38DA38DA19EA19AA789A789A5BE
:1009F0009AA50197F1F79AA789A780913F018F5F88
:100A000080933F0160CF2FD008F481E0089557D044
:100A100088F09F5790F0B92F9927B751A0F0D1F0E7
:100A2000660F771F881F991F1AF0BA95C9F712C071
:100A3000B13081F05ED0B1E008955BC0672F782FB0
:100A40008827B85F39F0B93FCCF3869577956795DD
:100A5000B395D9F73EF490958095709561957F4F49
:100A60008F4F9F4F0895990F0008550FAA0BE0E88C
:100A7000FEEF16161706E807F907C0F01216130660
:100A8000E407F50798F0621B730B840B950B39F4A0
:100A90000A2661F0232B242B252B21F408950A2606
:100AA00009F4A140A6958FEF811D811D089557FD82
:100AB0009058440F551F59F05F3F71F04795880FCC
:100AC00097FB991F61F09F3F79F087950895121663
:100AD00013061406551FF2CF4695F1DF08C016160F
:100AE00017061806991FF1CF8695710561050894C0
:100AF0000895E894BB2766277727CB0197F90895D7
:100B0000B2DF08F48FEF08950BD078C069D028F0D9
:100B10006ED018F0952309F05AC05FC01124EACFB7
:100B2000C6DFA0F3959FD1F3950F50E0551F629F4C
:100B3000F001729FBB27F00DB11D639FAA27F00D36
:100B4000B11DAA1F649F6627B00DA11D661F829F5D
:100B50002227B00DA11D621F739FB00DA11D621F42
:100B6000839FA00D611D221F749F3327A00D611D5F
:100B7000231F849F600D211D822F762F6A2F112441
:100B80009F5750408AF0E1F088234AF0EE0FFF1F94
:100B9000BB1F661F771F881F91505040A9F79E3FCB
:100BA000510570F014C0A6CF5F3FECF3983EDCF324
:100BB000869577956795B795F795E7959F5FC1F708
:100BC000FE2B880F911D9695879597F9089597F9B3
:100BD0009F6780E870E060E008959FEF80EC0895E3
:100BE00000240A941616170618060906089500240C
:100BF0000A9412161306140605060895092E039486
:100C0000000C11F4882352F0BB0F40F4BF2B11F4F9
:100C100060FF04C06F5F7F4F8F4F9F4F0895F89420
:020C2000FFCF04
:100C22001106120214011800211622122411281092
:060C3200020A040B080C8D
:00000001FF
