:100000000C942A000C9434000C9434000C943400AA
:100010000C9434000C9434000C9434000C94340090
:100020000C9434000C9434000C9434000C94340080
:100030000C9434000C9434000C9434000C94340070
:100040000C9434000C9434000C9434000C94340060
:100050000C94340011241FBECFE5D4E0DEBFCDBF29
:100060000E9436000C9460000C940000CF93DF9344
:10007000CDB7DEB784E390E020EFFC01208385E379
:1000800090E020EFFC0120838AE390E02FEFFC0159
:1000900020838BE390E0FC01108281E390E02FEF5E
:1000A000FC01208382E390E0FC01108282E390E077
:1000B00020E1FC0120838BE390E0FC011082F6CF6D
:0400C000F894FFCFE2
:00000001FF
